{
  "_format": "hh-sol-artifact-1",
  "contractName": "BlockchainMarketplace",
  "sourceName": "contracts/BlockchainMarketplace.sol",
  "abi": [
    {
      "anonymous": false,
      "inputs": [
        {
          "indexed": false,
          "internalType": "string",
          "name": "name",
          "type": "string"
        },
        {
          "indexed": false,
          "internalType": "bool",
          "name": "sold",
          "type": "bool"
        },
        {
          "indexed": false,
          "internalType": "address payable",
          "name": "owner",
          "type": "address"
        },
        {
          "indexed": false,
          "internalType": "uint256",
          "name": "price",
          "type": "uint256"
        }
      ],
      "name": "BuyProduct",
      "type": "event"
    },
    {
      "anonymous": false,
      "inputs": [
        {
          "indexed": false,
          "internalType": "string",
          "name": "name",
          "type": "string"
        },
        {
          "indexed": false,
          "internalType": "string",
          "name": "description",
          "type": "string"
        },
        {
          "indexed": false,
          "internalType": "string",
          "name": "image",
          "type": "string"
        },
        {
          "indexed": false,
          "internalType": "bool",
          "name": "sold",
          "type": "bool"
        },
        {
          "indexed": false,
          "internalType": "address payable",
          "name": "owner",
          "type": "address"
        },
        {
          "indexed": false,
          "internalType": "uint256",
          "name": "price",
          "type": "uint256"
        },
        {
          "indexed": false,
          "internalType": "string",
          "name": "category",
          "type": "string"
        }
      ],
      "name": "CreatedProduct",
      "type": "event"
    },
    {
      "inputs": [
        {
          "internalType": "uint256",
          "name": "_id",
          "type": "uint256"
        }
      ],
      "name": "buyProduct",
      "outputs": [],
      "stateMutability": "payable",
      "type": "function"
    },
    {
      "inputs": [],
      "name": "count",
      "outputs": [
        {
          "internalType": "uint256",
          "name": "",
          "type": "uint256"
        }
      ],
      "stateMutability": "view",
      "type": "function"
    },
    {
      "inputs": [
        {
          "internalType": "string",
          "name": "name",
          "type": "string"
        },
        {
          "internalType": "string",
          "name": "description",
          "type": "string"
        },
        {
          "internalType": "string",
          "name": "image",
          "type": "string"
        },
        {
          "internalType": "uint256",
          "name": "price",
          "type": "uint256"
        },
        {
          "internalType": "string",
          "name": "category",
          "type": "string"
        }
      ],
      "name": "createProduct",
      "outputs": [],
      "stateMutability": "nonpayable",
      "type": "function"
    },
    {
      "inputs": [],
      "name": "storeName",
      "outputs": [
        {
          "internalType": "string",
          "name": "",
          "type": "string"
        }
      ],
      "stateMutability": "view",
      "type": "function"
    },
    {
      "inputs": [
        {
          "internalType": "uint256",
          "name": "",
          "type": "uint256"
        }
      ],
      "name": "storeProducts",
      "outputs": [
        {
          "internalType": "uint256",
          "name": "id",
          "type": "uint256"
        },
        {
          "internalType": "string",
          "name": "name",
          "type": "string"
        },
        {
          "internalType": "string",
          "name": "description",
          "type": "string"
        },
        {
          "internalType": "string",
          "name": "image",
          "type": "string"
        },
        {
          "internalType": "bool",
          "name": "sold",
          "type": "bool"
        },
        {
          "internalType": "address payable",
          "name": "owner",
          "type": "address"
        },
        {
          "internalType": "uint256",
          "name": "price",
          "type": "uint256"
        },
        {
          "internalType": "string",
          "name": "category",
          "type": "string"
        }
      ],
      "stateMutability": "view",
      "type": "function"
    }
  ],
  "bytecode": "60806040526040518060400160405280601681526020017f426c6f636b636861696e204d61726b6574706c616365000000000000000000008152505f90816100479190610297565b505f600155348015610057575f80fd5b50610366565b5f81519050919050565b7f4e487b71000000000000000000000000000000000000000000000000000000005f52604160045260245ffd5b7f4e487b71000000000000000000000000000000000000000000000000000000005f52602260045260245ffd5b5f60028204905060018216806100d857607f821691505b6020821081036100eb576100ea610094565b5b50919050565b5f819050815f5260205f209050919050565b5f6020601f8301049050919050565b5f82821b905092915050565b5f6008830261014d7fffffffffffffffffffffffffffffffffffffffffffffffffffffffffffffffff82610112565b6101578683610112565b95508019841693508086168417925050509392505050565b5f819050919050565b5f819050919050565b5f61019b6101966101918461016f565b610178565b61016f565b9050919050565b5f819050919050565b6101b483610181565b6101c86101c0826101a2565b84845461011e565b825550505050565b5f90565b6101dc6101d0565b6101e78184846101ab565b505050565b5b8181101561020a576101ff5f826101d4565b6001810190506101ed565b5050565b601f82111561024f57610220816100f1565b61022984610103565b81016020851015610238578190505b61024c61024485610103565b8301826101ec565b50505b505050565b5f82821c905092915050565b5f61026f5f1984600802610254565b1980831691505092915050565b5f6102878383610260565b9150826002028217905092915050565b6102a08261005d565b67ffffffffffffffff8111156102b9576102b8610067565b5b6102c382546100c1565b6102ce82828561020e565b5f60209050601f8311600181146102ff575f84156102ed578287015190505b6102f7858261027c565b86555061035e565b601f19841661030d866100f1565b5f5b828110156103345784890151825560018201915060208501945060208101905061030f565b86831015610351578489015161034d601f891682610260565b8355505b6001600288020188555050505b505050505050565b61193f806103735f395ff3fe608060405260043610610049575f3560e01c806306661abd1461004d57806332e086a114610077578063521936e61461009f5780638642269e146100c9578063e36fe830146100e5575b5f80fd5b348015610058575f80fd5b50610061610128565b60405161006e9190610ce8565b60405180910390f35b348015610082575f80fd5b5061009d60048036038101906100989190610e78565b61012e565b005b3480156100aa575f80fd5b506100b361041b565b6040516100c09190610fbf565b60405180910390f35b6100e360048036038101906100de9190610fdf565b6104a6565b005b3480156100f0575f80fd5b5061010b60048036038101906101069190610fdf565b610a48565b60405161011f989796959493929190611063565b60405180910390f35b60015481565b5f8211610170576040517f08c379a00000000000000000000000000000000000000000000000000000000081526004016101679061116b565b60405180910390fd5b60038551116101b4576040517f08c379a00000000000000000000000000000000000000000000000000000000081526004016101ab906111d3565b60405180910390fd5b600a8451116101f8576040517f08c379a00000000000000000000000000000000000000000000000000000000081526004016101ef90611261565b60405180910390fd5b600a83511161023c576040517f08c379a0000000000000000000000000000000000000000000000000000000008152600401610233906112ef565b60405180910390fd5b6001815111610280576040517f08c379a00000000000000000000000000000000000000000000000000000000081526004016102779061137d565b60405180910390fd5b60015f815480929190610292906113c8565b919050555060405180610100016040528060015481526020018681526020018581526020018481526020015f151581526020013373ffffffffffffffffffffffffffffffffffffffff1681526020018381526020018281525060025f60015481526020019081526020015f205f820151815f0155602082015181600101908161031b9190611609565b5060408201518160020190816103319190611609565b5060608201518160030190816103479190611609565b506080820151816004015f6101000a81548160ff02191690831515021790555060a08201518160040160016101000a81548173ffffffffffffffffffffffffffffffffffffffff021916908373ffffffffffffffffffffffffffffffffffffffff16021790555060c0820151816005015560e08201518160060190816103cd9190611609565b509050507f929fb5af3435ce580c3bbbf90caae3d2beef924c5649385440ae4082040311d98585855f33878760405161040c97969594939291906116d8565b60405180910390a15050505050565b5f80546104279061143c565b80601f01602080910402602001604051908101604052809291908181526020018280546104539061143c565b801561049e5780601f106104755761010080835404028352916020019161049e565b820191905f5260205f20905b81548152906001019060200180831161048157829003601f168201915b505050505081565b5f60025f8381526020019081526020015f20604051806101000160405290815f82015481526020016001820180546104dd9061143c565b80601f01602080910402602001604051908101604052809291908181526020018280546105099061143c565b80156105545780601f1061052b57610100808354040283529160200191610554565b820191905f5260205f20905b81548152906001019060200180831161053757829003601f168201915b5050505050815260200160028201805461056d9061143c565b80601f01602080910402602001604051908101604052809291908181526020018280546105999061143c565b80156105e45780601f106105bb576101008083540402835291602001916105e4565b820191905f5260205f20905b8154815290600101906020018083116105c757829003601f168201915b505050505081526020016003820180546105fd9061143c565b80601f01602080910402602001604051908101604052809291908181526020018280546106299061143c565b80156106745780601f1061064b57610100808354040283529160200191610674565b820191905f5260205f20905b81548152906001019060200180831161065757829003601f168201915b50505050508152602001600482015f9054906101000a900460ff161515151581526020016004820160019054906101000a900473ffffffffffffffffffffffffffffffffffffffff1673ffffffffffffffffffffffffffffffffffffffff1673ffffffffffffffffffffffffffffffffffffffff168152602001600582015481526020016006820180546107079061143c565b80601f01602080910402602001604051908101604052809291908181526020018280546107339061143c565b801561077e5780601f106107555761010080835404028352916020019161077e565b820191905f5260205f20905b81548152906001019060200180831161076157829003601f168201915b50505050508152505090505f8160a0015190508160800151156107d6576040517f08c379a00000000000000000000000000000000000000000000000000000000081526004016107cd906117ab565b60405180910390fd5b3373ffffffffffffffffffffffffffffffffffffffff168173ffffffffffffffffffffffffffffffffffffffff1603610844576040517f08c379a000000000000000000000000000000000000000000000000000000000815260040161083b90611813565b60405180910390fd5b8160c0015134101561088b576040517f08c379a0000000000000000000000000000000000000000000000000000000008152600401610882906118a1565b60405180910390fd5b8073ffffffffffffffffffffffffffffffffffffffff166108fc3490811502906040515f60405180830381858888f193505050501580156108ce573d5f803e3d5ffd5b50338260a0019073ffffffffffffffffffffffffffffffffffffffff16908173ffffffffffffffffffffffffffffffffffffffff168152505060018260800190151590811515815250508160025f8581526020019081526020015f205f820151815f015560208201518160010190816109479190611609565b50604082015181600201908161095d9190611609565b5060608201518160030190816109739190611609565b506080820151816004015f6101000a81548160ff02191690831515021790555060a08201518160040160016101000a81548173ffffffffffffffffffffffffffffffffffffffff021916908373ffffffffffffffffffffffffffffffffffffffff16021790555060c0820151816005015560e08201518160060190816109f99190611609565b509050507f5c486e06f32e8967d75263ff34842d4aee2d3c4252f800869d0d0e3a0e7356cf82602001516001338560c00151604051610a3b94939291906118bf565b60405180910390a1505050565b6002602052805f5260405f205f91509050805f015490806001018054610a6d9061143c565b80601f0160208091040260200160405190810160405280929190818152602001828054610a999061143c565b8015610ae45780601f10610abb57610100808354040283529160200191610ae4565b820191905f5260205f20905b815481529060010190602001808311610ac757829003601f168201915b505050505090806002018054610af99061143c565b80601f0160208091040260200160405190810160405280929190818152602001828054610b259061143c565b8015610b705780601f10610b4757610100808354040283529160200191610b70565b820191905f5260205f20905b815481529060010190602001808311610b5357829003601f168201915b505050505090806003018054610b859061143c565b80601f0160208091040260200160405190810160405280929190818152602001828054610bb19061143c565b8015610bfc5780601f10610bd357610100808354040283529160200191610bfc565b820191905f5260205f20905b815481529060010190602001808311610bdf57829003601f168201915b505050505090806004015f9054906101000a900460ff16908060040160019054906101000a900473ffffffffffffffffffffffffffffffffffffffff1690806005015490806006018054610c4f9061143c565b80601f0160208091040260200160405190810160405280929190818152602001828054610c7b9061143c565b8015610cc65780601f10610c9d57610100808354040283529160200191610cc6565b820191905f5260205f20905b815481529060010190602001808311610ca957829003601f168201915b5050505050905088565b5f819050919050565b610ce281610cd0565b82525050565b5f602082019050610cfb5f830184610cd9565b92915050565b5f604051905090565b5f80fd5b5f80fd5b5f80fd5b5f80fd5b5f601f19601f8301169050919050565b7f4e487b71000000000000000000000000000000000000000000000000000000005f52604160045260245ffd5b610d6082610d1a565b810181811067ffffffffffffffff82111715610d7f57610d7e610d2a565b5b80604052505050565b5f610d91610d01565b9050610d9d8282610d57565b919050565b5f67ffffffffffffffff821115610dbc57610dbb610d2a565b5b610dc582610d1a565b9050602081019050919050565b828183375f83830152505050565b5f610df2610ded84610da2565b610d88565b905082815260208101848484011115610e0e57610e0d610d16565b5b610e19848285610dd2565b509392505050565b5f82601f830112610e3557610e34610d12565b5b8135610e45848260208601610de0565b91505092915050565b610e5781610cd0565b8114610e61575f80fd5b50565b5f81359050610e7281610e4e565b92915050565b5f805f805f60a08688031215610e9157610e90610d0a565b5b5f86013567ffffffffffffffff811115610eae57610ead610d0e565b5b610eba88828901610e21565b955050602086013567ffffffffffffffff811115610edb57610eda610d0e565b5b610ee788828901610e21565b945050604086013567ffffffffffffffff811115610f0857610f07610d0e565b5b610f1488828901610e21565b9350506060610f2588828901610e64565b925050608086013567ffffffffffffffff811115610f4657610f45610d0e565b5b610f5288828901610e21565b9150509295509295909350565b5f81519050919050565b5f82825260208201905092915050565b8281835e5f83830152505050565b5f610f9182610f5f565b610f9b8185610f69565b9350610fab818560208601610f79565b610fb481610d1a565b840191505092915050565b5f6020820190508181035f830152610fd78184610f87565b905092915050565b5f60208284031215610ff457610ff3610d0a565b5b5f61100184828501610e64565b91505092915050565b5f8115159050919050565b61101e8161100a565b82525050565b5f73ffffffffffffffffffffffffffffffffffffffff82169050919050565b5f61104d82611024565b9050919050565b61105d81611043565b82525050565b5f610100820190506110775f83018b610cd9565b8181036020830152611089818a610f87565b9050818103604083015261109d8189610f87565b905081810360608301526110b18188610f87565b90506110c06080830187611015565b6110cd60a0830186611054565b6110da60c0830185610cd9565b81810360e08301526110ec8184610f87565b90509998505050505050505050565b7f5468652050726963652053686f756c64206265206c6172676572207468616e205f8201527f3000000000000000000000000000000000000000000000000000000000000000602082015250565b5f611155602183610f69565b9150611160826110fb565b604082019050919050565b5f6020820190508181035f83015261118281611149565b9050919050565b7f546865204e616d652053686f756c64206265206c6172676572207468616e20335f82015250565b5f6111bd602083610f69565b91506111c882611189565b602082019050919050565b5f6020820190508181035f8301526111ea816111b1565b9050919050565b7f546865206465736372697074696f6e2053686f756c64206265206c61726765725f8201527f207468616e203130000000000000000000000000000000000000000000000000602082015250565b5f61124b602883610f69565b9150611256826111f1565b604082019050919050565b5f6020820190508181035f8301526112788161123f565b9050919050565b7f54686520696d6167652055726c2053686f756c64206265206c617267657220745f8201527f68616e2033000000000000000000000000000000000000000000000000000000602082015250565b5f6112d9602583610f69565b91506112e48261127f565b604082019050919050565b5f6020820190508181035f830152611306816112cd565b9050919050565b7f5468652063617465676f72792053686f756c64206265206c61726765722074685f8201527f616e203100000000000000000000000000000000000000000000000000000000602082015250565b5f611367602483610f69565b91506113728261130d565b604082019050919050565b5f6020820190508181035f8301526113948161135b565b9050919050565b7f4e487b71000000000000000000000000000000000000000000000000000000005f52601160045260245ffd5b5f6113d282610cd0565b91507fffffffffffffffffffffffffffffffffffffffffffffffffffffffffffffffff82036114045761140361139b565b5b600182019050919050565b7f4e487b71000000000000000000000000000000000000000000000000000000005f52602260045260245ffd5b5f600282049050600182168061145357607f821691505b6020821081036114665761146561140f565b5b50919050565b5f819050815f5260205f209050919050565b5f6020601f8301049050919050565b5f82821b905092915050565b5f600883026114c87fffffffffffffffffffffffffffffffffffffffffffffffffffffffffffffffff8261148d565b6114d2868361148d565b95508019841693508086168417925050509392505050565b5f819050919050565b5f61150d61150861150384610cd0565b6114ea565b610cd0565b9050919050565b5f819050919050565b611526836114f3565b61153a61153282611514565b848454611499565b825550505050565b5f90565b61154e611542565b61155981848461151d565b505050565b5b8181101561157c576115715f82611546565b60018101905061155f565b5050565b601f8211156115c1576115928161146c565b61159b8461147e565b810160208510156115aa578190505b6115be6115b68561147e565b83018261155e565b50505b505050565b5f82821c905092915050565b5f6115e15f19846008026115c6565b1980831691505092915050565b5f6115f983836115d2565b9150826002028217905092915050565b61161282610f5f565b67ffffffffffffffff81111561162b5761162a610d2a565b5b611635825461143c565b611640828285611580565b5f60209050601f831160018114611671575f841561165f578287015190505b61166985826115ee565b8655506116d0565b601f19841661167f8661146c565b5f5b828110156116a657848901518255600182019150602085019450602081019050611681565b868310156116c357848901516116bf601f8916826115d2565b8355505b6001600288020188555050505b505050505050565b5f60e0820190508181035f8301526116f0818a610f87565b905081810360208301526117048189610f87565b905081810360408301526117188188610f87565b90506117276060830187611015565b6117346080830186611054565b61174160a0830185610cd9565b81810360c08301526117538184610f87565b905098975050505050505050565b7f546869732050726f6475637420536f6c640000000000000000000000000000005f82015250565b5f611795601183610f69565b91506117a082611761565b602082019050919050565b5f6020820190508181035f8301526117c281611789565b9050919050565b7f43616e6e6f742042757920796f75722050726f647563740000000000000000005f82015250565b5f6117fd601783610f69565b9150611808826117c9565b602082019050919050565b5f6020820190508181035f83015261182a816117f1565b9050919050565b7f546865206d6f756e7420796f752073656e64202073686f756c642062652065715f8201527f75616c2070726f64756374207072696365200000000000000000000000000000602082015250565b5f61188b603283610f69565b915061189682611831565b604082019050919050565b5f6020820190508181035f8301526118b88161187f565b9050919050565b5f6080820190508181035f8301526118d78187610f87565b90506118e66020830186611015565b6118f36040830185611054565b6119006060830184610cd9565b9594505050505056fea2646970667358221220f6a401c7c593047e2b5905d0acbbd9f91944bd0877cc48aa9012cc67cac20e0064736f6c63430008190033",
  "linkReferences": {},
  "deployedLinkReferences": {}
}